{
  "_format": "hh-sol-artifact-1",
  "contractName": "KUSD",
  "sourceName": "contracts/KUSD.sol",
  "abi": [
    {
      "inputs": [
        {
          "internalType": "address",
          "name": "_priceFeed",
          "type": "address"
        }
      ],
      "stateMutability": "nonpayable",
      "type": "constructor"
    },
    {
      "anonymous": false,
      "inputs": [
        {
          "indexed": true,
          "internalType": "address",
          "name": "owner",
          "type": "address"
        },
        {
          "indexed": true,
          "internalType": "address",
          "name": "spender",
          "type": "address"
        },
        {
          "indexed": false,
          "internalType": "uint256",
          "name": "value",
          "type": "uint256"
        }
      ],
      "name": "Approval",
      "type": "event"
    },
    {
      "anonymous": false,
      "inputs": [
        {
          "indexed": true,
          "internalType": "address",
          "name": "user",
          "type": "address"
        },
        {
          "indexed": false,
          "internalType": "uint256",
          "name": "amount",
          "type": "uint256"
        }
      ],
      "name": "BondCreated",
      "type": "event"
    },
    {
      "anonymous": false,
      "inputs": [
        {
          "indexed": false,
          "internalType": "uint256",
          "name": "newBondFactor",
          "type": "uint256"
        }
      ],
      "name": "BondFactorUpdated",
      "type": "event"
    },
    {
      "anonymous": false,
      "inputs": [
        {
          "indexed": true,
          "internalType": "address",
          "name": "user",
          "type": "address"
        },
        {
          "indexed": false,
          "internalType": "uint256",
          "name": "amount",
          "type": "uint256"
        }
      ],
      "name": "BondRedeemed",
      "type": "event"
    },
    {
      "anonymous": false,
      "inputs": [
        {
          "indexed": false,
          "internalType": "address",
          "name": "user",
          "type": "address"
        },
        {
          "indexed": false,
          "internalType": "uint256",
          "name": "amount",
          "type": "uint256"
        },
        {
          "indexed": false,
          "internalType": "address",
          "name": "collateral",
          "type": "address"
        }
      ],
      "name": "Burn",
      "type": "event"
    },
    {
      "anonymous": false,
      "inputs": [
        {
          "indexed": false,
          "internalType": "address",
          "name": "collateral",
          "type": "address"
        },
        {
          "indexed": false,
          "internalType": "uint256",
          "name": "ratio",
          "type": "uint256"
        }
      ],
      "name": "CollateralAdded",
      "type": "event"
    },
    {
      "anonymous": false,
      "inputs": [
        {
          "indexed": false,
          "internalType": "address",
          "name": "collateral",
          "type": "address"
        }
      ],
      "name": "CollateralRemoved",
      "type": "event"
    },
    {
      "anonymous": false,
      "inputs": [
        {
          "indexed": false,
          "internalType": "bool",
          "name": "shutdown",
          "type": "bool"
        }
      ],
      "name": "EmergencyShutdownSet",
      "type": "event"
    },
    {
      "anonymous": false,
      "inputs": [
        {
          "indexed": false,
          "internalType": "uint256",
          "name": "newFeeRate",
          "type": "uint256"
        }
      ],
      "name": "FeeRateUpdated",
      "type": "event"
    },
    {
      "anonymous": false,
      "inputs": [
        {
          "indexed": false,
          "internalType": "address",
          "name": "user",
          "type": "address"
        },
        {
          "indexed": false,
          "internalType": "uint256",
          "name": "amount",
          "type": "uint256"
        },
        {
          "indexed": false,
          "internalType": "address",
          "name": "collateral",
          "type": "address"
        }
      ],
      "name": "Mint",
      "type": "event"
    },
    {
      "anonymous": false,
      "inputs": [
        {
          "indexed": true,
          "internalType": "address",
          "name": "previousOwner",
          "type": "address"
        },
        {
          "indexed": true,
          "internalType": "address",
          "name": "newOwner",
          "type": "address"
        }
      ],
      "name": "OwnershipTransferred",
      "type": "event"
    },
    {
      "anonymous": false,
      "inputs": [
        {
          "indexed": false,
          "internalType": "address",
          "name": "account",
          "type": "address"
        }
      ],
      "name": "Paused",
      "type": "event"
    },
    {
      "anonymous": false,
      "inputs": [
        {
          "indexed": false,
          "internalType": "address",
          "name": "newPriceFeed",
          "type": "address"
        }
      ],
      "name": "PriceFeedUpdated",
      "type": "event"
    },
    {
      "anonymous": false,
      "inputs": [
        {
          "indexed": false,
          "internalType": "uint256",
          "name": "newTotalSupply",
          "type": "uint256"
        }
      ],
      "name": "Rebase",
      "type": "event"
    },
    {
      "anonymous": false,
      "inputs": [
        {
          "indexed": false,
          "internalType": "uint256",
          "name": "newTargetPrice",
          "type": "uint256"
        }
      ],
      "name": "TargetPriceAdjusted",
      "type": "event"
    },
    {
      "anonymous": false,
      "inputs": [
        {
          "indexed": true,
          "internalType": "address",
          "name": "from",
          "type": "address"
        },
        {
          "indexed": true,
          "internalType": "address",
          "name": "to",
          "type": "address"
        },
        {
          "indexed": false,
          "internalType": "uint256",
          "name": "value",
          "type": "uint256"
        }
      ],
      "name": "Transfer",
      "type": "event"
    },
    {
      "anonymous": false,
      "inputs": [
        {
          "indexed": false,
          "internalType": "address",
          "name": "account",
          "type": "address"
        }
      ],
      "name": "Unpaused",
      "type": "event"
    },
    {
      "inputs": [],
      "name": "COOLDOWN_PERIOD",
      "outputs": [
        {
          "internalType": "uint256",
          "name": "",
          "type": "uint256"
        }
      ],
      "stateMutability": "view",
      "type": "function"
    },
    {
      "inputs": [],
      "name": "LARGE_AMOUNT_THRESHOLD",
      "outputs": [
        {
          "internalType": "uint256",
          "name": "",
          "type": "uint256"
        }
      ],
      "stateMutability": "view",
      "type": "function"
    },
    {
      "inputs": [],
      "name": "TARGET_PRICE",
      "outputs": [
        {
          "internalType": "uint256",
          "name": "",
          "type": "uint256"
        }
      ],
      "stateMutability": "view",
      "type": "function"
    },
    {
      "inputs": [
        {
          "internalType": "address",
          "name": "collateral",
          "type": "address"
        },
        {
          "internalType": "uint256",
          "name": "ratio",
          "type": "uint256"
        }
      ],
      "name": "addCollateral",
      "outputs": [],
      "stateMutability": "nonpayable",
      "type": "function"
    },
    {
      "inputs": [
        {
          "internalType": "uint256",
          "name": "newTargetPrice",
          "type": "uint256"
        }
      ],
      "name": "adjustTargetPrice",
      "outputs": [],
      "stateMutability": "nonpayable",
      "type": "function"
    },
    {
      "inputs": [
        {
          "internalType": "address",
          "name": "_owner",
          "type": "address"
        },
        {
          "internalType": "address",
          "name": "spender",
          "type": "address"
        }
      ],
      "name": "allowance",
      "outputs": [
        {
          "internalType": "uint256",
          "name": "",
          "type": "uint256"
        }
      ],
      "stateMutability": "view",
      "type": "function"
    },
    {
      "inputs": [
        {
          "internalType": "address",
          "name": "spender",
          "type": "address"
        },
        {
          "internalType": "uint256",
          "name": "amount",
          "type": "uint256"
        }
      ],
      "name": "approve",
      "outputs": [
        {
          "internalType": "bool",
          "name": "",
          "type": "bool"
        }
      ],
      "stateMutability": "nonpayable",
      "type": "function"
    },
    {
      "inputs": [
        {
          "internalType": "address",
          "name": "account",
          "type": "address"
        }
      ],
      "name": "balanceOf",
      "outputs": [
        {
          "internalType": "uint256",
          "name": "",
          "type": "uint256"
        }
      ],
      "stateMutability": "view",
      "type": "function"
    },
    {
      "inputs": [],
      "name": "bondFactor",
      "outputs": [
        {
          "internalType": "uint256",
          "name": "",
          "type": "uint256"
        }
      ],
      "stateMutability": "view",
      "type": "function"
    },
    {
      "inputs": [
        {
          "internalType": "uint256",
          "name": "amount",
          "type": "uint256"
        },
        {
          "internalType": "address",
          "name": "collateral",
          "type": "address"
        },
        {
          "internalType": "uint256",
          "name": "maxSlippage",
          "type": "uint256"
        }
      ],
      "name": "burn",
      "outputs": [],
      "stateMutability": "nonpayable",
      "type": "function"
    },
    {
      "inputs": [
        {
          "internalType": "address",
          "name": "",
          "type": "address"
        }
      ],
      "name": "collaterals",
      "outputs": [
        {
          "internalType": "contract IERC20",
          "name": "token",
          "type": "address"
        },
        {
          "internalType": "uint256",
          "name": "ratio",
          "type": "uint256"
        }
      ],
      "stateMutability": "view",
      "type": "function"
    },
    {
      "inputs": [
        {
          "internalType": "uint256",
          "name": "amount",
          "type": "uint256"
        }
      ],
      "name": "createBond",
      "outputs": [],
      "stateMutability": "nonpayable",
      "type": "function"
    },
    {
      "inputs": [],
      "name": "decimals",
      "outputs": [
        {
          "internalType": "uint8",
          "name": "",
          "type": "uint8"
        }
      ],
      "stateMutability": "view",
      "type": "function"
    },
    {
      "inputs": [],
      "name": "emergencyShutdown",
      "outputs": [
        {
          "internalType": "bool",
          "name": "",
          "type": "bool"
        }
      ],
      "stateMutability": "view",
      "type": "function"
    },
    {
      "inputs": [],
      "name": "feeRate",
      "outputs": [
        {
          "internalType": "uint256",
          "name": "",
          "type": "uint256"
        }
      ],
      "stateMutability": "view",
      "type": "function"
    },
    {
      "inputs": [
        {
          "internalType": "address",
          "name": "collateral",
          "type": "address"
        }
      ],
      "name": "getCollateralRatio",
      "outputs": [
        {
          "internalType": "uint256",
          "name": "",
          "type": "uint256"
        }
      ],
      "stateMutability": "view",
      "type": "function"
    },
    {
      "inputs": [],
      "name": "getPrice",
      "outputs": [
        {
          "internalType": "uint256",
          "name": "",
          "type": "uint256"
        }
      ],
      "stateMutability": "view",
      "type": "function"
    },
    {
      "inputs": [
        {
          "internalType": "uint256",
          "name": "amount",
          "type": "uint256"
        },
        {
          "internalType": "address",
          "name": "collateral",
          "type": "address"
        },
        {
          "internalType": "uint256",
          "name": "maxSlippage",
          "type": "uint256"
        }
      ],
      "name": "mint",
      "outputs": [],
      "stateMutability": "nonpayable",
      "type": "function"
    },
    {
      "inputs": [],
      "name": "name",
      "outputs": [
        {
          "internalType": "string",
          "name": "",
          "type": "string"
        }
      ],
      "stateMutability": "view",
      "type": "function"
    },
    {
      "inputs": [],
      "name": "owner",
      "outputs": [
        {
          "internalType": "address",
          "name": "",
          "type": "address"
        }
      ],
      "stateMutability": "view",
      "type": "function"
    },
    {
      "inputs": [],
      "name": "pause",
      "outputs": [],
      "stateMutability": "nonpayable",
      "type": "function"
    },
    {
      "inputs": [],
      "name": "paused",
      "outputs": [
        {
          "internalType": "bool",
          "name": "",
          "type": "bool"
        }
      ],
      "stateMutability": "view",
      "type": "function"
    },
    {
      "inputs": [],
      "name": "priceFeed",
      "outputs": [
        {
          "internalType": "contract IPriceFeed",
          "name": "",
          "type": "address"
        }
      ],
      "stateMutability": "view",
      "type": "function"
    },
    {
      "inputs": [],
      "name": "rebase",
      "outputs": [],
      "stateMutability": "nonpayable",
      "type": "function"
    },
    {
      "inputs": [
        {
          "internalType": "address",
          "name": "token",
          "type": "address"
        },
        {
          "internalType": "uint256",
          "name": "amount",
          "type": "uint256"
        }
      ],
      "name": "recoverToken",
      "outputs": [],
      "stateMutability": "nonpayable",
      "type": "function"
    },
    {
      "inputs": [
        {
          "internalType": "uint256",
          "name": "amount",
          "type": "uint256"
        }
      ],
      "name": "redeemBond",
      "outputs": [],
      "stateMutability": "nonpayable",
      "type": "function"
    },
    {
      "inputs": [
        {
          "internalType": "address",
          "name": "collateral",
          "type": "address"
        }
      ],
      "name": "removeCollateral",
      "outputs": [],
      "stateMutability": "nonpayable",
      "type": "function"
    },
    {
      "inputs": [
        {
          "internalType": "bool",
          "name": "_shutdown",
          "type": "bool"
        }
      ],
      "name": "setEmergencyShutdown",
      "outputs": [],
      "stateMutability": "nonpayable",
      "type": "function"
    },
    {
      "inputs": [],
      "name": "symbol",
      "outputs": [
        {
          "internalType": "string",
          "name": "",
          "type": "string"
        }
      ],
      "stateMutability": "view",
      "type": "function"
    },
    {
      "inputs": [],
      "name": "totalBonds",
      "outputs": [
        {
          "internalType": "uint256",
          "name": "",
          "type": "uint256"
        }
      ],
      "stateMutability": "view",
      "type": "function"
    },
    {
      "inputs": [],
      "name": "totalSupply",
      "outputs": [
        {
          "internalType": "uint256",
          "name": "",
          "type": "uint256"
        }
      ],
      "stateMutability": "view",
      "type": "function"
    },
    {
      "inputs": [
        {
          "internalType": "address",
          "name": "recipient",
          "type": "address"
        },
        {
          "internalType": "uint256",
          "name": "amount",
          "type": "uint256"
        }
      ],
      "name": "transfer",
      "outputs": [
        {
          "internalType": "bool",
          "name": "",
          "type": "bool"
        }
      ],
      "stateMutability": "nonpayable",
      "type": "function"
    },
    {
      "inputs": [
        {
          "internalType": "address",
          "name": "sender",
          "type": "address"
        },
        {
          "internalType": "address",
          "name": "recipient",
          "type": "address"
        },
        {
          "internalType": "uint256",
          "name": "amount",
          "type": "uint256"
        }
      ],
      "name": "transferFrom",
      "outputs": [
        {
          "internalType": "bool",
          "name": "",
          "type": "bool"
        }
      ],
      "stateMutability": "nonpayable",
      "type": "function"
    },
    {
      "inputs": [
        {
          "internalType": "address",
          "name": "newOwner",
          "type": "address"
        }
      ],
      "name": "transferOwnership",
      "outputs": [],
      "stateMutability": "nonpayable",
      "type": "function"
    },
    {
      "inputs": [],
      "name": "unpause",
      "outputs": [],
      "stateMutability": "nonpayable",
      "type": "function"
    },
    {
      "inputs": [
        {
          "internalType": "uint256",
          "name": "newBondFactor",
          "type": "uint256"
        }
      ],
      "name": "updateBondFactor",
      "outputs": [],
      "stateMutability": "nonpayable",
      "type": "function"
    },
    {
      "inputs": [
        {
          "internalType": "uint256",
          "name": "newFeeRate",
          "type": "uint256"
        }
      ],
      "name": "updateFeeRate",
      "outputs": [],
      "stateMutability": "nonpayable",
      "type": "function"
    },
    {
      "inputs": [
        {
          "internalType": "address",
          "name": "newPriceFeed",
          "type": "address"
        }
      ],
      "name": "updatePriceFeed",
      "outputs": [],
      "stateMutability": "nonpayable",
      "type": "function"
    }
  ],
  "bytecode": "0x60c0604052600860809081526712da5dda481554d160c21b60a05260009062000029908262000190565b5060408051808201909152600481526312d554d160e21b602082015260019062000054908262000190565b506002805460ff19166012179055670de0b6b3a76400006009553480156200007b57600080fd5b506040516200233c3803806200233c8339810160408190526200009e916200025c565b60068054336001600160a01b031991821617909155600880549091166001600160a01b039290921691909117905567016345785d8a0000600a55662386f26fc10000600c556200028e565b634e487b7160e01b600052604160045260246000fd5b600181811c908216806200011457607f821691505b6020821081036200013557634e487b7160e01b600052602260045260246000fd5b50919050565b601f8211156200018b576000816000526020600020601f850160051c81016020861015620001665750805b601f850160051c820191505b81811015620001875782815560010162000172565b5050505b505050565b81516001600160401b03811115620001ac57620001ac620000e9565b620001c481620001bd8454620000ff565b846200013b565b602080601f831160018114620001fc5760008415620001e35750858301515b600019600386901b1c1916600185901b17855562000187565b600085815260208120601f198616915b828110156200022d578886015182559484019460019091019084016200020c565b50858210156200024c5787850151600019600388901b60f8161c191681555b5050505050600190811b01905550565b6000602082840312156200026f57600080fd5b81516001600160a01b03811681146200028757600080fd5b9392505050565b61209e806200029e6000396000f3fe608060405234801561001057600080fd5b50600436106102325760003560e01c80637e99ce59116101305780639eea5f66116100b8578063d411401d1161007c578063d411401d146104a9578063dd62ed3e146104b2578063eeb97d3b146104eb578063f263c4701461053d578063f2fde38b1461054657600080fd5b80639eea5f6614610455578063a9059cbb14610468578063af14052c1461047b578063b29a814014610483578063c99d3a061461049657600080fd5b806395877f78116100ff57806395877f781461041657806395d89b4114610429578063978bbdb91461043157806398d5fdca1461043a5780639ddc2bb11461044257600080fd5b80637e99ce59146103df578063836a1040146103e85780638456cb59146103fb5780638da5cb5b1461040357600080fd5b80633f4ba83a116101be5780636d75b9ee116101825780636d75b9ee1461035b5780636e99d52f1461036e57806370a0823114610378578063741bef1a146103a15780637b84fda5146103cc57600080fd5b80633f4ba83a1461030857806347161b41146103105780634e337a98146103215780635c975abb146103345780636350e4b21461034857600080fd5b806315a3ba431161020557806315a3ba43146102a057806318160ddd146102c157806323b872dd146102c9578063313ce567146102dc5780633403c2fc146102fb57600080fd5b8063042a20771461023757806306fdde031461024c578063095ea7b31461026a57806314c644021461028d575b600080fd5b61024a610245366004611ccd565b610559565b005b6102546106d8565b6040516102619190611ce6565b60405180910390f35b61027d610278366004611d51565b610766565b6040519015158152602001610261565b61024a61029b366004611d8c565b61077d565b6102b36102ae366004611db0565b6107ef565b604051908152602001610261565b6003546102b3565b61027d6102d7366004611dcb565b6108e3565b6002546102e99060ff1681565b60405160ff9091168152602001610261565b600e5461027d9060ff1681565b61024a610986565b6102b369d3c21bcecceda100000081565b61024a61032f366004611ccd565b6109f3565b60065461027d90600160a01b900460ff1681565b61024a610356366004611ccd565b610a52565b61024a610369366004611d51565b610b6f565b6102b36201518081565b6102b3610386366004611db0565b6001600160a01b031660009081526004602052604090205490565b6008546103b4906001600160a01b031681565b6040516001600160a01b039091168152602001610261565b61024a6103da366004611ccd565b610c1e565b6102b360095481565b61024a6103f6366004611e07565b610c7d565b61024a610f77565b6006546103b4906001600160a01b031681565b61024a610424366004611db0565b610fe4565b61025461105c565b6102b3600c5481565b6102b3611069565b61024a610450366004611ccd565b611191565b61024a610463366004611e07565b6111f0565b61027d610476366004611d51565b6114d7565b61024a6114e4565b61024a610491366004611d51565b611546565b61024a6104a4366004611db0565b611644565b6102b3600a5481565b6102b36104c0366004611e2c565b6001600160a01b03918216600090815260056020908152604080832093909416825291909152205490565b61051e6104f9366004611db0565b600760205260009081526040902080546001909101546001600160a01b039091169082565b604080516001600160a01b039093168352602083019190915201610261565b6102b3600b5481565b61024a610554366004611db0565b6116cb565b600654600160a01b900460ff161561058c5760405162461bcd60e51b815260040161058390611e5f565b60405180910390fd5b600e5460ff16156105af5760405162461bcd60e51b815260040161058390611e8b565b6009546105ba611069565b116106075760405162461bcd60e51b815260206004820152601960248201527f5072696365206973206e6f742061626f766520746172676574000000000000006044820152606401610583565b80600b5410156106595760405162461bcd60e51b815260206004820152601a60248201527f4e6f7420656e6f75676820626f6e647320746f2072656465656d0000000000006044820152606401610583565b80600b600082825461066b9190611ee2565b9091555050600a5460009061068883670de0b6b3a7640000611ef5565b6106929190611f0c565b905061069e33826117a7565b60405182815233907fbbb59c50b3cd05fe4982a9bc1fbab45bd421ac707f4fba6b080522e3a9cc03b3906020015b60405180910390a25050565b600080546106e590611f2e565b80601f016020809104026020016040519081016040528092919081815260200182805461071190611f2e565b801561075e5780601f106107335761010080835404028352916020019161075e565b820191906000526020600020905b81548152906001019060200180831161074157829003601f168201915b505050505081565b6000610773338484611887565b5060015b92915050565b6006546001600160a01b031633146107a75760405162461bcd60e51b815260040161058390611f62565b600e805460ff19168215159081179091556040519081527f5611fff971476b9da7fdc68438da23091ebc1312447cc632767f4c512f5eb6ce906020015b60405180910390a150565b6001600160a01b03811660009081526007602052604081206001015482906108295760405162461bcd60e51b815260040161058390611f89565b6001600160a01b038381166000908152600760205260408082205490516370a0823160e01b8152306004820152919216906370a0823190602401602060405180830381865afa158015610880573d6000803e3d6000fd5b505050506040513d601f19601f820116820180604052508101906108a49190611fb5565b90506003546000036108ba5760009250506108dd565b6003546108cf82670de0b6b3a7640000611ef5565b6108d99190611f0c565b9250505b50919050565b60006108f0848484611995565b6001600160a01b03841660009081526005602090815260408083203384529091529020548281101561096e5760405162461bcd60e51b815260206004820152602160248201527f5472616e7366657220616d6f756e74206578636565647320616c6c6f77616e636044820152606560f81b6064820152608401610583565b61097b8533858403611887565b506001949350505050565b6006546001600160a01b031633146109b05760405162461bcd60e51b815260040161058390611f62565b6006805460ff60a01b191690556040513381527f5db9ee0a495bf2e6ff9c91a7834c1ba4fdd244a5e8aa4e537bd38aeae4b073aa906020015b60405180910390a1565b6006546001600160a01b03163314610a1d5760405162461bcd60e51b815260040161058390611f62565b60098190556040518181527f1a7a018c2afb2791e518c01a36b05619f02fdbfe1eb06b8e678b65f9d68f7abc906020016107e4565b600654600160a01b900460ff1615610a7c5760405162461bcd60e51b815260040161058390611e5f565b600e5460ff1615610a9f5760405162461bcd60e51b815260040161058390611e8b565b600954610aaa611069565b10610af75760405162461bcd60e51b815260206004820152601960248201527f5072696365206973206e6f742062656c6f7720746172676574000000000000006044820152606401610583565b610b013382611b2e565b6000670de0b6b3a7640000600a5483610b1a9190611ef5565b610b249190611f0c565b905080600b6000828254610b389190611fce565b909155505060405181815233907fb78f8c8b30af3dda5b450a8ab3227df1c43044bcbaa5949480683bb9dce70cba906020016106cc565b6006546001600160a01b03163314610b995760405162461bcd60e51b815260040161058390611f62565b6040805180820182526001600160a01b038481168083526020808401868152600083815260078352869020945185546001600160a01b03191694169390931784559151600190930192909255825191825281018390527f7dba1be544024070cd5eebfa8bdd80a8b198cea8058c7d3cc1f8dd36e41ab2f7910160405180910390a15050565b6006546001600160a01b03163314610c485760405162461bcd60e51b815260040161058390611f62565b600c8190556040518181527f208f1b468d3d61f0f085e975bd9d04367c930d599642faad06695229f3eadcd8906020016107e4565b6001600160a01b0382166000908152600760205260409020600101548290610cb75760405162461bcd60e51b815260040161058390611f89565b600654600160a01b900460ff1615610ce15760405162461bcd60e51b815260040161058390611e5f565b600e5460ff1615610d045760405162461bcd60e51b815260040161058390611e8b565b8369d3c21bcecceda10000008110610d9657336000908152600d6020526040902054610d34906201518090611fce565b421015610d835760405162461bcd60e51b815260206004820152601b60248201527f436f6f6c646f776e20706572696f64206e6f7420656c617073656400000000006044820152606401610583565b336000908152600d602052604090204290555b6000610da0611069565b905083600954610db09190611fce565b811115610df35760405162461bcd60e51b81526020600482015260116024820152700a6d8d2e0e0c2ceca40e8dede40d0d2ced607b1b6044820152606401610583565b6000670de0b6b3a7640000610e088389611ef5565b610e129190611f0c565b9050670de0b6b3a7640000600c5482610e2b9190611ef5565b610e359190611f0c565b610e3f9082611fce565b6001600160a01b03878116600090815260076020526040908190205490516323b872dd60e01b81523360048201523060248201526044810184905292935016906323b872dd906064016020604051808303816000875af1158015610ea7573d6000803e3d6000fd5b505050506040513d601f19601f82011682018060405250810190610ecb9190611fe1565b610f175760405162461bcd60e51b815260206004820152601a60248201527f436f6c6c61746572616c207472616e73666572206661696c65640000000000006044820152606401610583565b610f2133886117a7565b60408051338152602081018990526001600160a01b038816918101919091527fbcad3d7d3dfccb90d49c6063bf70f828901fefc88937d90af74e58e6e55bc39d906060015b60405180910390a150505050505050565b6006546001600160a01b03163314610fa15760405162461bcd60e51b815260040161058390611f62565b6006805460ff60a01b1916600160a01b1790556040513381527f62e78cea01bee320cd4e420270b5ea74000d11b0c9f74754ebdbfc544b05a258906020016109e9565b6006546001600160a01b0316331461100e5760405162461bcd60e51b815260040161058390611f62565b600880546001600160a01b0319166001600160a01b0383169081179091556040519081527fe5b20b8497e4f3e2435ef9c20e2e26b47497ee13745ce1c681ad6640653119e6906020016107e4565b600180546106e590611f2e565b6000806000600860009054906101000a90046001600160a01b03166001600160a01b031663feaf968c6040518163ffffffff1660e01b815260040160a060405180830381865afa1580156110c1573d6000803e3d6000fd5b505050506040513d601f19601f820116820180604052508101906110e59190612018565b50935050925050610e10426110fa9190611ee2565b811161113b5760405162461bcd60e51b815260206004820152601060248201526f5374616c65207072696365206461746160801b6044820152606401610583565b6000821361117b5760405162461bcd60e51b815260206004820152600d60248201526c496e76616c696420707269636560981b6044820152606401610583565b61118a826402540be400611ef5565b9250505090565b6006546001600160a01b031633146111bb5760405162461bcd60e51b815260040161058390611f62565b600a8190556040518181527f3fe8e2ad15901805eb6adef0301e8716d1026d426e711ba83c475346230a8474906020016107e4565b6001600160a01b038216600090815260076020526040902060010154829061122a5760405162461bcd60e51b815260040161058390611f89565b600654600160a01b900460ff16156112545760405162461bcd60e51b815260040161058390611e5f565b600e5460ff16156112775760405162461bcd60e51b815260040161058390611e8b565b8369d3c21bcecceda1000000811061130957336000908152600d60205260409020546112a7906201518090611fce565b4210156112f65760405162461bcd60e51b815260206004820152601b60248201527f436f6f6c646f776e20706572696f64206e6f7420656c617073656400000000006044820152606401610583565b336000908152600d602052604090204290555b6000611313611069565b9050836009546113239190611ee2565b8110156113665760405162461bcd60e51b81526020600482015260116024820152700a6d8d2e0e0c2ceca40e8dede40d0d2ced607b1b6044820152606401610583565b6113703387611b2e565b6000670de0b6b3a76400006113858389611ef5565b61138f9190611f0c565b9050670de0b6b3a7640000600c54826113a89190611ef5565b6113b29190611f0c565b6113bc9082611ee2565b6001600160a01b038781166000908152600760205260409081902054905163a9059cbb60e01b815233600482015260248101849052929350169063a9059cbb906044016020604051808303816000875af115801561141e573d6000803e3d6000fd5b505050506040513d601f19601f820116820180604052508101906114429190611fe1565b61148e5760405162461bcd60e51b815260206004820152601a60248201527f436f6c6c61746572616c207472616e73666572206661696c65640000000000006044820152606401610583565b60408051338152602081018990526001600160a01b038816918101919091527fdbdf9b8e4b75e75b162d151ec8fc7f0561cabab5fcccfa2600be62223e4300c490606001610f66565b6000610773338484611995565b6006546001600160a01b0316331461150e5760405162461bcd60e51b815260040161058390611f62565b6000611518611069565b905060008160095460035461152d9190611ef5565b6115379190611f0c565b905061154281611c60565b5050565b6006546001600160a01b031633146115705760405162461bcd60e51b815260040161058390611f62565b306001600160a01b038316036115c85760405162461bcd60e51b815260206004820152601a60248201527f43616e6e6f74207265636f766572204b55534420746f6b656e730000000000006044820152606401610583565b60065460405163a9059cbb60e01b81526001600160a01b039182166004820152602481018390529083169063a9059cbb906044016020604051808303816000875af115801561161b573d6000803e3d6000fd5b505050506040513d601f19601f8201168201806040525081019061163f9190611fe1565b505050565b6006546001600160a01b0316331461166e5760405162461bcd60e51b815260040161058390611f62565b6001600160a01b038116600081815260076020908152604080832080546001600160a01b03191681556001019290925590519182527fd89d2ee68ab04dca0193f48a4aff55e20fa5ec0429a8a8c1c51b8dad6178a59391016107e4565b6006546001600160a01b031633146116f55760405162461bcd60e51b815260040161058390611f62565b6001600160a01b03811661174b5760405162461bcd60e51b815260206004820152601d60248201527f4e6577206f776e657220697320746865207a65726f20616464726573730000006044820152606401610583565b6006546040516001600160a01b038084169216907f8be0079c531659141344cd1fd0a4f28419497f9722a3daafe3b4186f6b6457e090600090a3600680546001600160a01b0319166001600160a01b0392909216919091179055565b6001600160a01b0382166117fd5760405162461bcd60e51b815260206004820152601860248201527f4d696e7420746f20746865207a65726f206164647265737300000000000000006044820152606401610583565b806003600082825461180f9190611fce565b90915550506001600160a01b0382166000908152600460205260408120805483929061183c908490611fce565b90915550506040518181526001600160a01b038316906000907fddf252ad1be2c89b69c2b068fc378daa952ba7f163c4a11628f55a4df523b3ef906020015b60405180910390a35050565b6001600160a01b0383166118dd5760405162461bcd60e51b815260206004820152601d60248201527f417070726f76652066726f6d20746865207a65726f20616464726573730000006044820152606401610583565b6001600160a01b0382166119335760405162461bcd60e51b815260206004820152601b60248201527f417070726f766520746f20746865207a65726f206164647265737300000000006044820152606401610583565b6001600160a01b0383811660008181526005602090815260408083209487168084529482529182902085905590518481527f8c5be1e5ebec7d5bd14f71427d1e84f3dd0314c0f7b2291e5b200ac8c7c3b92591015b60405180910390a3505050565b6001600160a01b0383166119eb5760405162461bcd60e51b815260206004820152601e60248201527f5472616e736665722066726f6d20746865207a65726f206164647265737300006044820152606401610583565b6001600160a01b038216611a415760405162461bcd60e51b815260206004820152601c60248201527f5472616e7366657220746f20746865207a65726f2061646472657373000000006044820152606401610583565b6001600160a01b038316600090815260046020526040902054811115611aa95760405162461bcd60e51b815260206004820152601f60248201527f5472616e7366657220616d6f756e7420657863656564732062616c616e6365006044820152606401610583565b6001600160a01b038084166000908152600460205260408082208054859003905591841681529081208054839290611ae2908490611fce565b92505081905550816001600160a01b0316836001600160a01b03167fddf252ad1be2c89b69c2b068fc378daa952ba7f163c4a11628f55a4df523b3ef8360405161198891815260200190565b6001600160a01b038216611b845760405162461bcd60e51b815260206004820152601a60248201527f4275726e2066726f6d20746865207a65726f20616464726573730000000000006044820152606401610583565b6001600160a01b038216600090815260046020526040902054811115611bec5760405162461bcd60e51b815260206004820152601b60248201527f4275726e20616d6f756e7420657863656564732062616c616e636500000000006044820152606401610583565b6001600160a01b03821660009081526004602052604081208054839003905560038054839290611c1d908490611ee2565b90915550506040518181526000906001600160a01b038416907fddf252ad1be2c89b69c2b068fc378daa952ba7f163c4a11628f55a4df523b3ef9060200161187b565b600354811115611c8657611c813060035483611c7c9190611ee2565b6117a7565b611c9d565b611c9d3082600354611c989190611ee2565b611b2e565b6040518181527fafae32ce2847c13a56ab802c034c27d3c19f1d61be48c424c5df134145cd44d0906020016107e4565b600060208284031215611cdf57600080fd5b5035919050565b60006020808352835180602085015260005b81811015611d1457858101830151858201604001528201611cf8565b506000604082860101526040601f19601f8301168501019250505092915050565b80356001600160a01b0381168114611d4c57600080fd5b919050565b60008060408385031215611d6457600080fd5b611d6d83611d35565b946020939093013593505050565b8015158114611d8957600080fd5b50565b600060208284031215611d9e57600080fd5b8135611da981611d7b565b9392505050565b600060208284031215611dc257600080fd5b611da982611d35565b600080600060608486031215611de057600080fd5b611de984611d35565b9250611df760208501611d35565b9150604084013590509250925092565b600080600060608486031215611e1c57600080fd5b83359250611df760208501611d35565b60008060408385031215611e3f57600080fd5b611e4883611d35565b9150611e5660208401611d35565b90509250929050565b60208082526012908201527110dbdb9d1c9858dd081a5cc81c185d5cd95960721b604082015260600190565b60208082526021908201527f436f6e747261637420697320696e20656d657267656e63792073687574646f776040820152603760f91b606082015260800190565b634e487b7160e01b600052601160045260246000fd5b8181038181111561077757610777611ecc565b808202811582820484141761077757610777611ecc565b600082611f2957634e487b7160e01b600052601260045260246000fd5b500490565b600181811c90821680611f4257607f821691505b6020821081036108dd57634e487b7160e01b600052602260045260246000fd5b6020808252600d908201526c2737ba103a34329037bbb732b960991b604082015260600190565b602080825260129082015271125b9d985b1a590818dbdb1b185d195c985b60721b604082015260600190565b600060208284031215611fc757600080fd5b5051919050565b8082018082111561077757610777611ecc565b600060208284031215611ff357600080fd5b8151611da981611d7b565b805169ffffffffffffffffffff81168114611d4c57600080fd5b600080600080600060a0868803121561203057600080fd5b61203986611ffe565b945060208601519350604086015192506060860151915061205c60808701611ffe565b9050929550929590935056fea2646970667358221220df3d0c101bd1c5de2a78ad70627245ae9aa1f6844b8b03f1bd1799b936023a0e64736f6c63430008180033",
  "linkReferences": {},
  "deployedLinkReferences": {}
}